{
  "contractName": "Blocklance",
  "abi": [
    {
      "constant": true,
      "inputs": [
        {
          "name": "",
          "type": "address"
        }
      ],
      "name": "username",
      "outputs": [
        {
          "name": "Type",
          "type": "string"
        },
        {
          "name": "check",
          "type": "bool"
        }
      ],
      "payable": false,
      "stateMutability": "view",
      "type": "function"
    },
    {
      "constant": true,
      "inputs": [
        {
          "name": "",
          "type": "address"
        }
      ],
      "name": "empWork",
      "outputs": [
        {
          "name": "employerAddress",
          "type": "address"
        },
        {
          "name": "wName",
          "type": "string"
        },
        {
          "name": "wDescr",
          "type": "string"
        },
        {
          "name": "cost",
          "type": "uint256"
        },
        {
          "name": "wChk",
          "type": "bool"
        }
      ],
      "payable": false,
      "stateMutability": "view",
      "type": "function"
    },
    {
      "constant": true,
      "inputs": [
        {
          "name": "",
          "type": "address"
        }
      ],
      "name": "AcceptMap",
      "outputs": [
        {
          "name": "employerAddress",
          "type": "address"
        },
        {
          "name": "wName",
          "type": "string"
        },
        {
          "name": "wDescr",
          "type": "string"
        },
        {
          "name": "cost",
          "type": "uint256"
        },
        {
          "name": "wChk",
          "type": "bool"
        }
      ],
      "payable": false,
      "stateMutability": "view",
      "type": "function"
    },
    {
      "constant": true,
      "inputs": [],
      "name": "workEmp",
      "outputs": [
        {
          "name": "",
          "type": "address"
        }
      ],
      "payable": false,
      "stateMutability": "view",
      "type": "function"
    },
    {
      "constant": false,
      "inputs": [
        {
          "name": "_Type",
          "type": "string"
        }
      ],
      "name": "addUser",
      "outputs": [],
      "payable": false,
      "stateMutability": "nonpayable",
      "type": "function"
    },
    {
      "constant": false,
      "inputs": [
        {
          "name": "_wName",
          "type": "string"
        },
        {
          "name": "_wDescr",
          "type": "string"
        },
        {
          "name": "_cost",
          "type": "uint256"
        }
      ],
      "name": "addWork",
      "outputs": [],
      "payable": false,
      "stateMutability": "nonpayable",
      "type": "function"
    },
    {
      "constant": false,
      "inputs": [
        {
          "name": "index",
          "type": "uint256"
        }
      ],
      "name": "viewWorkList",
      "outputs": [
        {
          "components": [
            {
              "name": "employerAddress",
              "type": "address"
            },
            {
              "name": "wName",
              "type": "string"
            },
            {
              "name": "wDescr",
              "type": "string"
            },
            {
              "name": "cost",
              "type": "uint256"
            },
            {
              "name": "wChk",
              "type": "bool"
            }
          ],
          "name": "",
          "type": "tuple"
        }
      ],
      "payable": false,
      "stateMutability": "nonpayable",
      "type": "function"
    },
    {
      "constant": false,
      "inputs": [
        {
          "name": "Employeraddress",
          "type": "address"
        }
      ],
      "name": "acceptWork",
      "outputs": [],
      "payable": false,
      "stateMutability": "nonpayable",
      "type": "function"
    },
    {
      "constant": false,
      "inputs": [
        {
          "name": "index",
          "type": "uint256"
        }
      ],
      "name": "remove",
      "outputs": [],
      "payable": false,
      "stateMutability": "nonpayable",
      "type": "function"
    }
  ],
  "bytecode": "0x608060405234801561001057600080fd5b506118e9806100206000396000f3fe608060405234801561001057600080fd5b50600436106100935760003560e01c806350acf7821161006657806350acf7821461011d5780636ddb89bd146101515780637ea6e9cc1461016d578063b41f767c146101a1578063ddd750af146101bf57610093565b80630610a7a21461009857806318b8275a146100c95780632e19e10b146100e55780634cc8221514610101575b600080fd5b6100b260048036036100ad9190810190611437565b6101ef565b6040516100c092919061170e565b60405180910390f35b6100e360048036036100de9190810190611460565b6102b8565b005b6100ff60048036036100fa9190810190611437565b61041e565b005b61011b60048036036101169190810190611520565b610613565b005b61013760048036036101329190810190611437565b610815565b6040516101489594939291906116ad565b60405180910390f35b61016b600480360361016691908101906114a1565b6109a8565b005b61018760048036036101829190810190611437565b610ca6565b6040516101989594939291906116ad565b60405180910390f35b6101a9610e39565b6040516101b69190611692565b60405180910390f35b6101d960048036036101d49190810190611520565b610e5f565b6040516101e6919061173e565b60405180910390f35b6001602052806000526040600020600091509050806000018054600181600116156101000203166002900480601f01602080910402602001604051908101604052809291908181526020018280546001816001161561010002031660029004801561029b5780601f106102705761010080835404028352916020019161029b565b820191906000526020600020905b81548152906001019060200180831161027e57829003601f168201915b5050505050908060010160009054906101000a900460ff16905082565b6000600160003373ffffffffffffffffffffffffffffffffffffffff1673ffffffffffffffffffffffffffffffffffffffff16815260200190815260200160002090508060010160009054906101000a900460ff161561031757600080fd5b6000600190506040518060400160405280848152602001821515815250600160003373ffffffffffffffffffffffffffffffffffffffff1673ffffffffffffffffffffffffffffffffffffffff168152602001908152602001600020600082015181600001908051906020019061038f92919061114a565b5060208201518160010160006101000a81548160ff02191690831515021790555090505060003390806001815401808255809150509060018203906000526020600020016000909192909190916101000a81548173ffffffffffffffffffffffffffffffffffffffff021916908373ffffffffffffffffffffffffffffffffffffffff16021790555050505050565b6000600190508060036000600260009054906101000a900473ffffffffffffffffffffffffffffffffffffffff1673ffffffffffffffffffffffffffffffffffffffff1673ffffffffffffffffffffffffffffffffffffffff16815260200190815260200160002060040160006101000a81548160ff021916908315150217905550600360008373ffffffffffffffffffffffffffffffffffffffff1673ffffffffffffffffffffffffffffffffffffffff168152602001908152602001600020600660003373ffffffffffffffffffffffffffffffffffffffff1673ffffffffffffffffffffffffffffffffffffffff1681526020019081526020016000206000820160009054906101000a900473ffffffffffffffffffffffffffffffffffffffff168160000160006101000a81548173ffffffffffffffffffffffffffffffffffffffff021916908373ffffffffffffffffffffffffffffffffffffffff160217905550600182018160010190805460018160011615610100020316600290046105ac9291906111ca565b50600282018160020190805460018160011615610100020316600290046105d49291906111ca565b50600382015481600301556004820160009054906101000a900460ff168160040160006101000a81548160ff0219169083151502179055509050505050565b60078054905081101561062557600080fd5b60008190505b600160078054905003811015610772576007600182018154811061064b57fe5b90600052602060002090600502016007828154811061066657fe5b90600052602060002090600502016000820160009054906101000a900473ffffffffffffffffffffffffffffffffffffffff168160000160006101000a81548173ffffffffffffffffffffffffffffffffffffffff021916908373ffffffffffffffffffffffffffffffffffffffff160217905550600182018160010190805460018160011615610100020316600290046107029291906111ca565b506002820181600201908054600181600116156101000203166002900461072a9291906111ca565b50600382015481600301556004820160009054906101000a900460ff168160040160006101000a81548160ff021916908315150217905550905050808060010191505061062b565b5060076001600780549050038154811061078857fe5b9060005260206000209060050201600080820160006101000a81549073ffffffffffffffffffffffffffffffffffffffff02191690556001820160006107ce9190611251565b6002820160006107de9190611251565b60038201600090556004820160006101000a81549060ff0219169055505060078054809190600190036108119190611299565b5050565b60036020528060005260406000206000915090508060000160009054906101000a900473ffffffffffffffffffffffffffffffffffffffff1690806001018054600181600116156101000203166002900480601f0160208091040260200160405190810160405280929190818152602001828054600181600116156101000203166002900480156108e75780601f106108bc576101008083540402835291602001916108e7565b820191906000526020600020905b8154815290600101906020018083116108ca57829003601f168201915b505050505090806002018054600181600116156101000203166002900480601f0160208091040260200160405190810160405280929190818152602001828054600181600116156101000203166002900480156109855780601f1061095a57610100808354040283529160200191610985565b820191906000526020600020905b81548152906001019060200180831161096857829003601f168201915b5050505050908060030154908060040160009054906101000a900460ff16905085565b6000339050600080905033600260006101000a81548173ffffffffffffffffffffffffffffffffffffffff021916908373ffffffffffffffffffffffffffffffffffffffff1602179055506040518060a001604052808373ffffffffffffffffffffffffffffffffffffffff168152602001868152602001858152602001848152602001821515815250600360003373ffffffffffffffffffffffffffffffffffffffff1673ffffffffffffffffffffffffffffffffffffffff16815260200190815260200160002060008201518160000160006101000a81548173ffffffffffffffffffffffffffffffffffffffff021916908373ffffffffffffffffffffffffffffffffffffffff1602179055506020820151816001019080519060200190610ad492919061114a565b506040820151816002019080519060200190610af192919061114a565b506060820151816003015560808201518160040160006101000a81548160ff02191690831515021790555090505060056040518060a001604052808473ffffffffffffffffffffffffffffffffffffffff1681526020018781526020018681526020018581526020018315158152509080600181540180825580915050906001820390600052602060002090600502016000909192909190915060008201518160000160006101000a81548173ffffffffffffffffffffffffffffffffffffffff021916908373ffffffffffffffffffffffffffffffffffffffff1602179055506020820151816001019080519060200190610bee92919061114a565b506040820151816002019080519060200190610c0b92919061114a565b506060820151816003015560808201518160040160006101000a81548160ff02191690831515021790555050505060043390806001815401808255809150509060018203906000526020600020016000909192909190916101000a81548173ffffffffffffffffffffffffffffffffffffffff021916908373ffffffffffffffffffffffffffffffffffffffff160217905550505050505050565b60066020528060005260406000206000915090508060000160009054906101000a900473ffffffffffffffffffffffffffffffffffffffff1690806001018054600181600116156101000203166002900480601f016020809104026020016040519081016040528092919081815260200182805460018160011615610100020316600290048015610d785780601f10610d4d57610100808354040283529160200191610d78565b820191906000526020600020905b815481529060010190602001808311610d5b57829003601f168201915b505050505090806002018054600181600116156101000203166002900480601f016020809104026020016040519081016040528092919081815260200182805460018160011615610100020316600290048015610e165780601f10610deb57610100808354040283529160200191610e16565b820191906000526020600020905b815481529060010190602001808311610df957829003601f168201915b5050505050908060030154908060040160009054906101000a900460ff16905085565b600260009054906101000a900473ffffffffffffffffffffffffffffffffffffffff1681565b610e676112cb565b60006003600060048581548110610e7a57fe5b9060005260206000200160009054906101000a900473ffffffffffffffffffffffffffffffffffffffff1673ffffffffffffffffffffffffffffffffffffffff1673ffffffffffffffffffffffffffffffffffffffff16815260200190815260200160002060040160006101000a81548160ff021916908315150217905515611144576003600060048481548110610f0e57fe5b9060005260206000200160009054906101000a900473ffffffffffffffffffffffffffffffffffffffff1673ffffffffffffffffffffffffffffffffffffffff1673ffffffffffffffffffffffffffffffffffffffff1681526020019081526020016000206040518060a00160405290816000820160009054906101000a900473ffffffffffffffffffffffffffffffffffffffff1673ffffffffffffffffffffffffffffffffffffffff1673ffffffffffffffffffffffffffffffffffffffff168152602001600182018054600181600116156101000203166002900480601f01602080910402602001604051908101604052809291908181526020018280546001816001161561010002031660029004801561106d5780601f106110425761010080835404028352916020019161106d565b820191906000526020600020905b81548152906001019060200180831161105057829003601f168201915b50505050508152602001600282018054600181600116156101000203166002900480601f01602080910402602001604051908101604052809291908181526020018280546001816001161561010002031660029004801561110f5780601f106110e45761010080835404028352916020019161110f565b820191906000526020600020905b8154815290600101906020018083116110f257829003601f168201915b50505050508152602001600382015481526020016004820160009054906101000a900460ff1615151515815250509050611145565b5b919050565b828054600181600116156101000203166002900490600052602060002090601f016020900481019282601f1061118b57805160ff19168380011785556111b9565b828001600101855582156111b9579182015b828111156111b857825182559160200191906001019061119d565b5b5090506111c69190611312565b5090565b828054600181600116156101000203166002900490600052602060002090601f016020900481019282601f106112035780548555611240565b8280016001018555821561124057600052602060002091601f016020900482015b8281111561123f578254825591600101919060010190611224565b5b50905061124d9190611312565b5090565b50805460018160011615610100020316600290046000825580601f106112775750611296565b601f0160209004906000526020600020908101906112959190611312565b5b50565b8154818355818111156112c6576005028160050283600052602060002091820191016112c59190611337565b5b505050565b6040518060a00160405280600073ffffffffffffffffffffffffffffffffffffffff1681526020016060815260200160608152602001600081526020016000151581525090565b61133491905b80821115611330576000816000905550600101611318565b5090565b90565b6113b691905b808211156113b257600080820160006101000a81549073ffffffffffffffffffffffffffffffffffffffff021916905560018201600061137d9190611251565b60028201600061138d9190611251565b60038201600090556004820160006101000a81549060ff02191690555060050161133d565b5090565b90565b6000813590506113c881611881565b92915050565b600082601f8301126113df57600080fd5b81356113f26113ed8261178d565b611760565b9150808252602083016020830185838301111561140e57600080fd5b61141983828461182e565b50505092915050565b60008135905061143181611898565b92915050565b60006020828403121561144957600080fd5b6000611457848285016113b9565b91505092915050565b60006020828403121561147257600080fd5b600082013567ffffffffffffffff81111561148c57600080fd5b611498848285016113ce565b91505092915050565b6000806000606084860312156114b657600080fd5b600084013567ffffffffffffffff8111156114d057600080fd5b6114dc868287016113ce565b935050602084013567ffffffffffffffff8111156114f957600080fd5b611505868287016113ce565b925050604061151686828701611422565b9150509250925092565b60006020828403121561153257600080fd5b600061154084828501611422565b91505092915050565b611552816117e6565b82525050565b611561816117e6565b82525050565b611570816117f8565b82525050565b61157f816117f8565b82525050565b6000611590826117b9565b61159a81856117c4565b93506115aa81856020860161183d565b6115b381611870565b840191505092915050565b60006115c9826117b9565b6115d381856117d5565b93506115e381856020860161183d565b6115ec81611870565b840191505092915050565b600060a08301600083015161160f6000860182611549565b50602083015184820360208601526116278282611585565b915050604083015184820360408601526116418282611585565b91505060608301516116566060860182611674565b5060808301516116696080860182611567565b508091505092915050565b61167d81611824565b82525050565b61168c81611824565b82525050565b60006020820190506116a76000830184611558565b92915050565b600060a0820190506116c26000830188611558565b81810360208301526116d481876115be565b905081810360408301526116e881866115be565b90506116f76060830185611683565b6117046080830184611576565b9695505050505050565b6000604082019050818103600083015261172881856115be565b90506117376020830184611576565b9392505050565b6000602082019050818103600083015261175881846115f7565b905092915050565b6000604051905081810181811067ffffffffffffffff8211171561178357600080fd5b8060405250919050565b600067ffffffffffffffff8211156117a457600080fd5b601f19601f8301169050602081019050919050565b600081519050919050565b600082825260208201905092915050565b600082825260208201905092915050565b60006117f182611804565b9050919050565b60008115159050919050565b600073ffffffffffffffffffffffffffffffffffffffff82169050919050565b6000819050919050565b82818337600083830152505050565b60005b8381101561185b578082015181840152602081019050611840565b8381111561186a576000848401525b50505050565b6000601f19601f8301169050919050565b61188a816117e6565b811461189557600080fd5b50565b6118a181611824565b81146118ac57600080fd5b5056fea265627a7a7230582021505f21b1ede9a36beb23a67993d8e88974a352a0e69d74900cb4d832f3aeeb6c6578706572696d656e74616cf50037",
  "source": "pragma solidity ^0.5.1;\npragma experimental ABIEncoderV2;\n\ncontract Blocklance {\n    \n    address[] Users;\n    struct User {\n        \n        string Type; \n        bool check;\n        \n    }\n    \n    mapping (address => User) public username;\n    \n    function addUser (string memory _Type)public{\n        User storage user = username[msg.sender];\n        require (!user.check);\n        bool check = true;\n        username[msg.sender]= User(_Type,check);\n        Users.push(msg.sender);\n    }\n    \n    struct work {\n        address employerAddress;\n        string wName;\n        string wDescr;\n        uint cost;\n        bool wChk;\n    }\n       address public workEmp;\n       mapping (address => work)public empWork;\n       address[] empAdresses;\n       work[] workList;       \n       function addWork (string memory _wName,string memory _wDescr,uint _cost)public\n               {\n                 address addEmployerAddress = msg.sender;\n                 bool _chk = false;\n                 workEmp = msg.sender;\n                 empWork[msg.sender]=work(addEmployerAddress,_wName,_wDescr,_cost,_chk);\n                 workList.push(work(addEmployerAddress,_wName,_wDescr,_cost,_chk));\n                 empAdresses.push(msg.sender);\n               }\n               \n               function viewWorkList(uint index)public returns(work memory)\n               {\n                   if (empWork[empAdresses[index]].wChk = false)\n                   return empWork[empAdresses[index]];\n               }    \n               \n               mapping (address=>work)public AcceptMap;\n               \n               function acceptWork (address Employeraddress)public {\n                   bool _chk = true;\n                   empWork[workEmp].wChk = _chk;\n                   AcceptMap[msg.sender]=empWork[Employeraddress];\n               }\n               \n               \n               \n               \n               \n               \n               \n               \n               \n               \n               \n               work[] array;\n               function remove(uint index) public\n                        {\n                            require(index >= array.length);    \n                            for (uint i = index; i<array.length-1; i++){\n                                array[i] = array[i+1];\n                                }\n                            delete array[array.length-1];\n                            array.length--;\n                         }\n}",
  "sourcePath": "/home/waditaibah/petshop/contracts/Blocklance.sol",
  "compiler": {
    "name": "solc",
    "version": "0.5.8+commit.23d335f2.Emscripten.clang"
  },
  "schemaVersion": "3.0.11",
  "updatedAt": "2019-07-21T11:01:01.865Z",
  "devdoc": {
    "methods": {}
  },
  "userdoc": {
    "methods": {}
  }
}